:100000000C942D090C9455090C9455090C94550920
:100010000C9455090C94DA120C9455090C9455095A
:100020000C9455090C9455090C9455090C945509D8
:100030000C9455090C9455090C9455090C945509C8
:100040000C94DA320C9455090C94D5340C94073581
:100050000C9455090C9455090C9455090C945509A8
:100060000C9455090C945509720C960CB70CF90CAC
:10007000140D2F0D4A0D650D3D2662266526692655
:100080006D2676267E2682268B2697263A263626CB
:10009000CC2ACC2ACC2A782B782BF42A092B192BA2
:1000A000262B342B442B782B782B782B5F2B076354
:1000B0004236B79BD8A71A39685618AEBAAB558CDA
:1000C0001D3CB7CC5763BD6DEDFD753EF617723123
:1000D000BF000000803F08000000BE922449123E8D
:1000E000ABAAAA2ABECDCCCC4C3E00000080BEAB51
:1000F000AAAAAA3E00000000BF000000803F000046
:10010000000000084178D3BB4387D1133D190E3C52
:10011000C3BD4282AD2B3E68EC8276BED98FE1A989
:100120003E4C80EFFFBE01C4FF7F3F000000000097
:10013000F410101028F500F4113688113688102AB2
:10014000A00000A0FF00A00000A0FF00102BB8013D
:1001500000B0FF0062013F102C7000F4113648110E
:100160003648102AA00000A0FF006200EF102BB854
:100170000100B0FF0062013F102C7000F41136083E
:10018000102AA00000A0FF00A00000A0FF00102B7C
:10019000B80100B0FF0062013F102C7000F411366E
:1001A00008102AA00000A0FF006200EF102BB80189
:1001B00000B0FF0062013F102C7000F411360810EF
:1001C0002AA00000A0FF006200EF102BB80100B0D1
:1001D000FF0062013F102C7000FDF1F58005F080FA
:1001E00005F18032F41011800A10131020113A66C4
:1001F00014B60AA2270011C02111C10211C7C012F2
:10020000C5313C15CB392C00340213CF008130139B
:10021000E884117A12EA66001029113608142A00BF
:100220000000EF142B0000013F102CF5005F0003CD
:10023000030304030504060E00FE0AFE0BFE017014
:1002400002DC200500F207210752C3C71301220870
:10025000A5DE87848B00230D56C20F89C542A258A4
:10026000482C0024115EBE978C12D11219CE24BAEC
:1002700044682200251056C28F8452114D83D191BB
:10028000A4429100260E56C2D748A2A7918452D10B
:100290002411270722DFC72100280CEDBA9F484D03
:1002A00024D3512654290DEDBA87504D28D3492621
:1002B00052032A0D3ECE47444B8426A344B4042B5C
:1002C0000A3EC69750C92454022C0823BBC7444297
:1002D000012D060ED287012E0612C307012F0E6EC6
:1002E000BAA736A14CA82694091501300B56C20FA7
:1002F00045C49F241400310A56C2976C44D4270386
:10030000320D56C20F454412CA84328D06330F5641
:10031000C20F4544128AA64212494201340D56C208
:1003200067506D44D1C5269400350F56C2C72128A9
:10033000AC88844212494201360E56C2D748422246
:1003400056449C241400370C56C2C7214411CA8459
:100350007A02380F56C20F45C4242151444C120A68
:1003600000390E56C20F45C4495224514423003A65
:10037000073AC70799003B0A4BBF8F3A6822A10092
:100380003C084EC2A74C571D3D0726CA871D6A3E32
:10039000094EC28754371D013F0E56C20F45449285
:1003A00029AAC3842200400C56C2D74842B97459C6
:1003B0009112410C56C20FE510E274183109420D3A
:1003C00056C24745C414A988385D00430C56C20F75
:1003D00045C4A813494201440C56C20749A2C42F80
:1003E000121200450B56C2C721A858116A34460B99
:1003F00056C2C721A85811EA08470D56C20F45C476
:10040000A85262925000480B56C28788D361C493A9
:1004100000490956C28749A89F0C4A0B56C2A73EFD
:100420009228A211004B0F56C287882221CD662444
:10043000924489244C0856C287507F344D0C56C2D2
:100440004770443A1C443C094E0C56C28788546994
:10045000A17422094F0B56C20F45C49F24140050AB
:100460000B56C24745C4E922D408510E66BA0F455F
:10047000C45385529250A501520C56C24745C474CC
:10048000D1C44900531056C20F4544924885528941
:100490008824A100540956C28749A83F01550A562D
:1004A000C287887F925000560C56C287889F2424AA
:1004B0009A0800570C56C28788A7C34325140158D1
:1004C0000F56C287882421D1843212454412590C18
:1004D00056C287884942A20975025A0E56C28751F0
:1004E000269409654299D0005B09EDBAC74DFFAD6E
:1004F000005C0E6EBA8750552815AA0AA542055D04
:1005000009EDBA474DFFED005E081EE6978C2212FA
:100510005F0716BAC7A10060079CE2874C01610D16
:100520003EC20F45249B4848244901620B56C287AE
:1005300050B122E2E902630B3EC20F4544D424A12C
:1005400000640A56C2A796134F9202650D3EC20F71
:1005500045443A0C45120A00660C56C29F8C24147E
:1005600099843A01670E4EBACF4A45D32C581149A7
:100570002800680B56C28750B122E29300690752E7
:10058000C307E9706A0CE5BA9F3A44A6378A640249
:100590006B0E56C28750534485449228D1026C0793
:1005A00052C3C783016D0A3EC2874472F840126E7F
:1005B000093EC24745C427016F0A3EC20F45C49396
:1005C0008402700B4EBA4745C4D3452804710A4EC5
:1005D000BACF8927495101720A3EC24745C4A811C2
:1005E00000730D3EC20F452491AA88241400740B99
:1005F00056C29750C924D4750075093EC287884FEA
:100600009202760C3EC287884942A2094500770CC7
:100610003EC287887478A8842200780D3EC28788FD
:1006200024A1C928229200790E4EBA878824D16964
:100630003694288D007A093EC28751A6A3017B0C0F
:10064000EDBAD744A69350A6E3007C076ABBC787E0
:10065000027D0DEDBAC750A6A348A6CB08007E0ABE
:1006600026DE4FAC22A94500000012000505050654
:10067000050607272A00FA23F724FA0000000020C5
:10068000060080E0132A3254B231B80C64400529C8
:100690008C218C53882211825888098C6190408467
:1006A0000F54C210C5311AB20841A44214C71885AC
:1006B000294881063214002B14BDD360BC0D7AFC8E
:1006C0005FFBC007B236E8F17F0D002C188B91DA82
:1006D000931CC42007318A418C6294A218A530452E
:1006E000290C002D09CD906914FC00042E09C7A81F
:1006F000E0137C60012F2AF1945D95158C602546EE
:10070000B0B255B01223588911AC6C15ACC4085660
:1007100062042B5B052BAD829518C1CA56C100300F
:1007200049799421F728CD511092CE540E731403B9
:100730001DE348C63094318C65086319E15846388A
:1007400096118E658463B9DF32C2B18C702C431868
:10075000CB10C63284A10E71248318E8208739CCCF
:1007600064240429A729080031186FAC20171D073D
:10077000290A59C407A6D0888524E640E7FFFF0F61
:10078000322F799421172DEC49D1994A3510838C59
:10079000231DC2504738D421CFE2218F8840144C0A
:1007A0005E3A97BCD4435EF21088C40FFC010D334F
:1007B0003D789421D72CEB41919948350E838803DD
:1007C0001DE2488638D2114FF088874B16C3149724
:1007D000BCA5351191473CA4218FE828573A0282E5
:1007E0000E719C63546432117AD67200343D7A8C57
:1007F00020B72550792BC76A0D33C2C18C702C43AA
:100800001CCB108732C6918E7124831CC8280732F6
:10081000CA710C73668C7314031DE4400731D24116
:100820003EF00F04EF98E7230035347894203754D6
:10083000A3BE71C4F38DE31C612914A946359282CD
:1008400088031DE2484730D411CF454739E90847AE
:100850003A02728E510DAA48C859CC0100364B7924
:1008600094211729CD5110920C55907210E41CE37D
:10087000408738E4491AF220C739C4528ED09023F9
:1008800038E3120B4184629090A02320CA08887A32
:1008900053473894210E6508041D0241C740CC51CE
:1008A00026339D28394D4100372F78942017FC03BB
:1008B000543CC1231E10810744E001117840D44309
:1008C00020F21088C00322F080A88740E42110792C
:1008D00008445EF2100600384C799421D7300B4260
:1008E00053A94835929208E420E2488738D2218EF5
:1008F0007488231DE248C738CE4190729C28396D18
:100900005910920C5290819C631CE908C732C2B105
:100910008C702CD77A12940E811C445CA322D4894B
:100920005463003947799421F72CCC51D1990A4569
:1009300010838C031DC3484838D4110E758443BD01
:100940004B4938501290B2884B3CE1184E3808237E
:100950008E6394431AF24C1CE818073AC671107261
:1009600014C44C464290729A82003A0D07BB201480
:100970007C60F920FB810500005F0004040505048C
:100980000506171900FA11FB11FD02ED05FE200600
:1009900000203C012109232E4CE1036309220AE8CF
:1009A000A86661887D320023282E26844D8CB031C4
:1009B000C2C40C132388092331E2C4081B234CCC86
:1009C00098168C860C13234E8CB031C2C48C022432
:1009D00028AC66732D6429342A88849826C434A1EF
:1009E0004A043387EC9CB110678298097224040989
:1009F00035C888860D0500253D3526BCA59CB0531D
:100A0000C3C48812264ACC305162C4891222509441
:100A100088916284080A756284A122D2881C214AC6
:100A2000A01051E2868812274694304163468D3AE1
:100A300026AE08002627302694C7243A22C4060D85
:100A40001B436EC8C0A345CD101941640815430669
:100A50001D196564182142651C1D212709E3AC4E50
:100A6000E1C108012812856A4B658A21539018322A
:100A70003F21321B31032913856A4B618C9821D3A6
:100A80000C997F3164122143002A1A292D7E458456
:100A90002011824408093264C9902022048910245C
:100AA0004208002B0ECE35C42D74BC7BD02C74BCF8
:100AB000032C0DC5643B65C4902162840C012D0894
:100AC000662445E1C1002E0763283C21012F194807
:100AD000E6536B943051A38449354A98A851C2A477
:100AE0001A254CD4280030172B266CA7D499490618
:100AF0008918657F3562909031634E9501310D27DD
:100B00002A6C69C8032383E6FF0032192C266CA9DE
:100B100054123243468D9C901CB96295912356EE37
:100B2000C1030333182B266CA7500A32A7064E3791
:100B3000AA58C9094D9D7182AA0C00341B2C266C41
:100B40008D5C65A6468C1A3168C898391934E4C1A1
:100B500003732367020035182B266C418516036743
:100B6000514405995303079A32E404911900361E43
:100B70002B266C89149A2124068D10384511156492
:100B80004ED96A84A81163C69C2A030037172B2606
:100B90006CE18381E3C88D23378EBA71E4C6911B63
:100BA000471500381A2B266CA7500A32A7AC1A3109
:100BB00066CCA133538CB2D5191289CA00391D2BCA
:100BC000266CA7D4992946891865D519124A4A0C6A
:100BD0001C68CAD09031435011023A09832D3C2140
:100BE0003D98043B10C5A54365F680878C183244B8
:100BF000C810003C128E75C45928398203098E1D15
:100C00004D7A34C5023D0BCE34C5E1417BD00F1A7D
:100C10003E148E75C4413069D2A3498F1D4870209F
:100C200039A282013F192A2664A5108A3123448DF6
:100C30009B6C18A961E3044A0F5AA02800403ED6D5
:100C4000E6C2F1F4CA67E50A952443C50822449236
:100C50004C338408924163CC0C1A6366D0183383FA
:100C6000C6981934C60C112223C8381963C20CA1C6
:100C700031A4C8032A0F86ED72640041213022841A
:100C80008D30E1A2460F92183864E0106264860D40
:100C90001A368810374EC80D1988720042182C2A4F
:100CA0007C41C98A57C7AC1AA144C9A811C36CF5C5
:100CB00080451A00431A2E2684C95CA22584880C1C
:100CC0004376761E0F23318CC82042C90C01441A8A
:100CD0002E2A8C01D91A26A34A8C1B31EEA0BD3BCB
:100CE00037625409266B520145102B2A7CE103839D
:100CF000337CA0700E1F3C1846102B2A74E103832E
:100D00003354A1C5C0F91000471C2F2694CB9C2258
:100D100026A5480C3C68782AAD168E1838A2D890C3
:100D200036CC8E00480E2D2A8C619C7DF7E03BFB73
:100D30006E004908232A3CE107064A102B267471ED
:100D4000FE4353A60E35496306004B2A2D2A8461C3
:100D500014895143061119436608A111A446903A1B
:100D6000766C04A9218486101A43661091412546A9
:100D7000911846004C0D2B2A7461E0FC3F7CF0601A
:100D8000004D27322AB4C1DC32CE520C5231688475
:100D90008941238C0C216164122393182131C48C66
:100DA0007D54C610214384064E232E2A94A118B2E6
:100DB00054A94C0C3231C8C81823638C103133C489
:100DC0000C0943230C8D309519B2024F1C2F268C31
:100DD000AB60AA35A4888C1B41EEA45D1E1C316E4D
:100DE000082932AB121A0250142C2A7C218D92153C
:100DF000A38ED9EA85124423E72500512431269C8D
:100E0000AB68BA55148D1B438EC8C82123878C1C30
:100E10003272C8C82104C78C1B448AD41B570C5299
:100E20001A2D2A84410D8B07C1CE593662891A16B4
:100E3000A3480C1B31EC9CED06531C2D267CC95499
:100E4000A23144460D194AD220B27446CF993B458F
:100E5000624DB24200540D2D267CE1835443E7FFDE
:100E6000150055122E2A9461A0FD0F8F9120448405
:100E70008D324300562631228C8124899143C8113A
:100E8000213768182152A42623438C0CB931034919
:100E900010243174C4D0A3862B0357453722BC815C
:100EA000D83012A34A0D19556A08A1424408891086
:100EB00044668A3183C68C183368CC88318388882D
:100EC00011426AC49811C3468C19316CC49811C37D
:100ED00046881231AE54C152054B152447080058BC
:100EE000232E26848118095243089121336AC83081
:100EF0007426899234776E04A931148D194582D8ED
:100F00003902591B2D267C61DC2912A386902133DE
:100F100011095223869D2B5872E87C05005A132C28
:100F20002674E10373E568488E86E4287CF0C000EF
:100F30005B0BC5EA4AA1C9FCFF13055C1347E653E6
:100F400041D428A94649354A56A3A41A25035D0B66
:100F5000C5EA4A41C9FCFF93065E21CB39BC2BE4AC
:100F6000C010E144080B132C4C28318242050A15AD
:100F70004694907021C48D1419005F084C6063E1A1
:100F80004102600A84A037618818210261158A2510
:100F90006CA70C9231E3C69C6863C8D011124988D3
:100FA0000862182C267461E4BC28A3840C0942C78B
:100FB0006C7628CD082543C80063148A2564A70CE5
:100FC000922187CCCDC8D088212410150164172C1C
:100FD000267473DE9418A2820CA263363B44624CE2
:100FE0001135440665148B256CA7D49929063D70EC
:100FF00038D1903143129501661128264CA788916B
:1010000051D33C08326AFE0D00671F2CE672A7C45C
:10101000101564101DB3D921128348AC213272C45B
:10102000A81164C62432030068112B266C61E0BC51
:1010300028A2820C2253F6AB01690A23262C21D95F
:101040008307066A0DC4EA3A639623E6FFC20500E9
:101050006B1F2B266461E0BC213166C83423C81C99
:101060003A3462D0083243880C213286C420026CA4
:1010700008232634E107066D239325AC61089922E5
:10108000234C9C285206D12853A34C8D3235CAD408
:101090002853A34C8D3235CAD4046E0E8B256C6157
:1010A000441115644ED95F0D6F178C2574C7149ABF
:1010B0004123088D1866B34324068D4165060070F0
:1010C000192CE672610819256546103A66B3436823
:1010D0004828195166E45C0271172CE67287C81023
:1010E0001563121DB3D921126488A82931721E72AA
:1010F0000E87254C618409376406CD470073148A36
:101100002564C50C0A3286909D3277C80C09344696
:10111000007410E8255447D4340F828C9AAF081914
:1011200022750E8B256C6194FDD519124A4A0C76F6
:10113000198C216C81D4884124060D213327A346C4
:101140008C1A31CA5C758400772A9321A48110A17E
:101150001183088D185368C41823638618193362E5
:10116000923123869C3962AA8CA942A50A91234414
:101170000600781B8B256C810C893143480C3A554D
:101180008C5CA93324C60C214166C42002791F2C33
:10119000E26281D4884124C8CC091912A3468C1A72
:1011A00031CA5C852307121C399014007A108A25F5
:1011B000642145326293912236BB07057B14E9AA6C
:1011C000628B509961F3159942C38A119BDF952276
:1011D0007C0822AF42E107057D17E8AA626114B1DD
:1011E00051F3D9A85263CA0C1A35DF941905007E51
:1011F0000B6C606585900837440000000000000813
:1012000000020100000304070000000000000000CD
:10121000010204081020408001020408102001028D
:10122000040810200404040404040404020202025A
:10123000020203030303030300000000230026004F
:10124000290000000000250028002B0000000000FD
:10125000240027002A000925373511241FBECFEFAF
:10126000D8E0DEBFCDBF14E0A0E0B1E0ECEAF9E7E2
:1012700002C005900D92A438B107D9F726E0A4E882
:10128000B4E001C01D92A033B207E1F712E1CAE554
:10129000D2E104C02297FE010E948C3CC635D107E2
:1012A000C9F70E947B350C94D43C0C9400000C943C
:1012B000C63C0F93022F242F462F60E004960E9415
:1012C000EF310F910895FC01808191810C94BE3C17
:1012D000CF92DF92EF92FF920F931F93CF93DF9302
:1012E00000D000D0CDB7DEB78C017B016C0184E06B
:1012F000C80ED11C1A830983CE0101966B837C83AF
:101300000E946309F70181937F010F5F1F4F6B817B
:101310007C810C151D0571F7CB010F900F900F907C
:101320000F90DF91CF911F910F91FF90EF90DF9081
:10133000CF900895CF92DF92EF92FF920F931F9379
:10134000CF93DF9300D000D0CDB7DEB78C017B0107
:101350006C0184E0C80ED11C1A830983CE0101966A
:101360006B837C830E946309F70181937F010F5F88
:101370001F4F6B817C810C151D0571F7CB010F9000
:101380000F900F900F90DF91CF911F910F91FF90D1
:10139000EF90DF90CF900895EF92FF920F931F93FD
:1013A000CF93DF9300D0CDB7DEB78AE2E82E81E09D
:1013B000F82E00E110E01A830983CE0101960E9405
:1013C0006309F70181937F010F5F1F4F04311105FE
:1013D00091F78AE291E00F900F90DF91CF911F91EA
:1013E0000F91FF90EF9008950F931F93CF93DF938A
:1013F0001F92CDB7DEB78C0169830E9463096981B2
:10140000681729F0F801808191810E94C63CC801CB
:101410000F90DF91CF911F910F910895EF92FF925E
:101420000F931F93CF93DF9300D0CDB7DEB77C012E
:101430008B01FB0160819A838983CE0101960E9412
:10144000F409F8016181FFEFEF1AFF0AFA82E982DD
:10145000CE0101960E94F409C8010F900F90DF9110
:10146000CF911F910F91FF90EF900895BF92CF926F
:10147000DF92EF92FF920F931F93CF93DF9300D0F1
:101480001F92CDB7DEB78C01B62EE62EF72E6C017B
:1014900084E0C80ED11CF70161917F011A83098392
:1014A000CE0101967B830E94F4090F5F1F4F7B8161
:1014B0000C151D0581F78B2D972F0F900F900F9016
:1014C000DF91CF911F910F91FF90EF90DF90CF9020
:1014D000BF900895BF92CF92DF92EF92FF920F9349
:1014E0001F93CF93DF9300D01F92CDB7DEB78C014F
:1014F000B62EE62EF72E6C0184E0C80ED11CF70143
:1015000061917F011A830983CE0101967B830E943A
:10151000F4090F5F1F4F7B810C151D0581F78B2D83
:10152000972F0F900F900F90DF91CF911F910F91F8
:10153000FF90EF90DF90CF90BF900895BF92CF9231
:10154000DF92EF92FF920F931F93CF93DF9300D020
:101550001F92CDB7DEB78C01B62EE62EF72E6C01AA
:1015600084E0C80ED11CF70161917F011A830983C1
:10157000CE0101967B830E94F4090F5F1F4F7B8190
:101580000C151D0581F78B2D972F0F900F900F9045
:10159000DF91CF911F910F91FF90EF90DF90CF904F
:1015A000BF900895EF92FF920F931F93CF93DF9315
:1015B00000D0CDB7DEB79AE2E92E91E0F92E00E136
:1015C00010E0F70161917F011A830983CE01019632
:1015D0000E94F4090F5F1F4F0431110591F78AE251
:1015E00091E00F900F90DF91CF911F910F91FF909D
:1015F000EF900895CF93DF9369E779E08AEA94E06A
:101600000E94AE3080911A0190911B0183309105A8
:1016100009F498C0A4F58130910509F466C00297D9
:1016200009F01CC12FEF4FEF6FEF86EA94E00E94A4
:101630005909CAE0D0E0D0937805C093770586E4D5
:1016400090E090937A058093790564E471E086EAEE
:1016500094E00E94C83520E040E06FEF86EA94E015
:101660000E945909D0937805C09377058FE590E0E3
:1016700090937A058093790568E571E0E9C085303B
:10168000910509F4B9C00CF48AC0069709F0E6C0C8
:101690002FEF4FEF6FEF86EA94E00E945909CAE0FE
:1016A000D0E0D0937805C09377058AEA90E09093D4
:1016B0007A058093790561E971E086EA94E00E94F9
:1016C000C83520E040E06FEF86EA94E00E945909B7
:1016D000D0937805C093770583EC90E090937A05DA
:1016E000809379056FE271E0B3C02FEF4FEF6FEF9A
:1016F00086EA94E00E945909CAE0D0E0D0937805C8
:10170000C093770583EC90E090937A0580937905F8
:101710006FE271E086EA94E00E94C83520E040E084
:101720006FEF86EA94E00E945909D0937805C09340
:10173000770586E490E090937A058093790564E4D8
:1017400071E086C02FEF4FEF6FEF86EA94E00E94C2
:101750005909CAE0D0E0D0937805C09377058FE5AA
:1017600090E090937A058093790568E571E086EAC8
:1017700094E00E94C83520E040E06FEF86EA94E0F4
:101780000E945909D0937805C093770588E790E0C7
:1017900090937A058093790567E671E059C02FEF41
:1017A0004FEF6FEF86EA94E00E945909CAE0D0E05B
:1017B000D0937805C093770588E790E090937A05F9
:1017C0008093790567E671E086EA94E00E94C83567
:1017D00020E040E06FEF86EA94E00E945909D09340
:1017E0007805C093770581E990E090937A0580931E
:1017F00079056DE771E02CC02FEF4FEF6FEF86EAB0
:1018000094E00E945909CAE0D0E0D0937805C093D3
:10181000770581E990E090937A05809379056DE7EB
:1018200071E086EA94E00E94C83520E040E06FEF66
:1018300086EA94E00E945909D0937805C093770511
:101840008AEA90E090937A058093790561E971E0E6
:1018500086EA94E0DF91CF910C94C835DF91CF9167
:1018600008950F931F9320E040E060E086EA94E043
:101870000E9459090EE110E025E530E04DEC50E002
:101880006CED70E08AEA94E00E94112769E779E044
:101890008AEA94E00E94AE3024E644E664E686EAF2
:1018A00094E00E9459098CE890E090937805809329
:1018B000770583EE90E090937A058093790563EA4B
:1018C00071E086EA94E00E94C835E0911401F0913D
:1018D00015013197E830F10508F017C1EC5CFF4FB6
:1018E0000C948A3C81E090E0A0E0B0E08093160187
:1018F00090931701A0931801B09319018CED90E01B
:10190000909378058093770586EE90E090937A0522
:101910008093790580918C0490918D04039719F43C
:1019200067EB71E0ECC06EEB71E0E9C08AE090E03B
:10193000A0E0B0E08093160190931701A0931801E6
:10194000B09319018CED90E0909378058093770522
:1019500086EE90E090937A058093790580918C04CF
:1019600090918D04039739F16DEC71E0C8C08091BE
:101970008C0490918D04039709F582E090E0909398
:101980001501809314018AE090E0A0E0B0E080931C
:10199000160190931701A0931801B09319018CEDD3
:1019A00090E0909378058093770586EE90E0909391
:1019B0007A058093790566EC71E0A1C084E690E039
:1019C000A0E0B0E08093160190931701A093180156
:1019D000B09319018CED90E0909378058093770592
:1019E00086EE90E090937A058093790564ED71E03E
:1019F00086C088EE93E0A0E0B0E08093160190935B
:101A00001701A0931801B09319018CED90E0909309
:101A100078058093770586EE90E090937A05809321
:101A200079056BED71E06BC080E197E2A0E0B0E07A
:101A30008093160190931701A0931801B093190198
:101A40008CED90E0909378058093770586EE90E09A
:101A500090937A058093790562EE71E050C080EA38
:101A600096E8A1E0B0E08093160190931701A0934F
:101A70001801B09319018CED90E090937805809354
:101A8000770586EE90E090937A058093790569EE6C
:101A900071E035C080E492E4AFE0B0E080931601DD
:101AA00090931701A0931801B09319018CED90E069
:101AB000909378058093770586EE90E090937A0571
:101AC0008093790560EF71E01AC080E896E9A8E993
:101AD000B0E08093160190931701A0931801B09382
:101AE00019018CED90E0909378058093770586EE50
:101AF00090E090937A058093790567EF71E086EA2C
:101B000094E01F910F910C94C8351F910F91089587
:101B1000EF92FF920F931F93CF93DF9300D0CDB737
:101B2000DEB7789420EF40EF60E086EA94E00E9410
:101B3000590903E210E026E930E04AEA50E060EAA1
:101B400070E08AEA94E00E945C2780918C04909176
:101B50008D048230910509F442C08330910509F467
:101B600065C00197C1F58CE890E09093780580936B
:101B7000770580EA90E090937A05809379056BE38E
:101B800072E086EA94E00E94C83584EB90E090937E
:101B900078058093770583EC90E090937A058093A5
:101BA0007905609180057091810580918205909101
:101BB00083050E946C3920E030E04AE754E40E943B
:101BC000D138AB01BC0123E030E086EA94E00E940A
:101BD00082370E94310C28E0E22EF12C6BC08CE899
:101BE00090E0909378058093770580EA90E0909359
:101BF0007A058093790564E472E086EA94E00E94B5
:101C0000C83584EB90E0909378058093770583EC5A
:101C100090E090937A058093790560912601709108
:101C200027018091280190912901C3CF8CE890E091
:101C3000909378058093770580EA90E090937A05F9
:101C4000809379056EEF71E086EA94E00E94C835D2
:101C500084EB90E0909378058093770583EC90E097
:101C600090937A058093790540918604509187047A
:101C700060918804709189042AE030E086EA94E05B
:101C80000E942E3681E090E090931501809314011C
:101C9000A0CF80E10E946D34892BA1F081E10E94E8
:101CA0006D34892B81F180918C0490918D04039780
:101CB00009F049C08FE00E946D348C01813091059C
:101CC00041F35BC02091140130911501215031097D
:101CD000121613062CF4309315012093140104C03E
:101CE000109315010093140180E10E946D34892B3B
:101CF000D9F30E94310C20EF40EF60E086EA94E0D7
:101D00000E945909CBCF8091140190911501019641
:101D1000893091052CF4909315018093140104C02F
:101D2000F0921501E092140181E10E946D34892B3B
:101D3000D9F30E94310C20EF40EF60E086EA94E096
:101D40000E945909B0CF80918A0490918B04039727
:101D500031F46091140185E890E00E945709809168
:101D60008A0490918B04049709F0A4CF6091140128
:101D700080E990E00E9457099DCF00918A0410915C
:101D80008B040330110519F485E890E005C0043098
:101D9000110569F480E990E09A838983CE01019668
:101DA0000E94630990E09093150180931401809143
:101DB000800590918105A0918205B09183054091A5
:101DC000260150912701609128017091290148173F
:101DD00059076A077B0744F48093260190932701F3
:101DE000A0932801B09329010330110591F460E814
:101DF00075E080E490E00E94360A66E271E080E5DA
:101E000090E00E94360A66E874E080E690E00E9466
:101E1000360A80918A0490918B04049791F460E8CB
:101E200075E085E490E00E94360A66E271E085E59F
:101E300090E00E94360A66E874E085E690E00E9431
:101E4000360A20E040E060E086EA94E00E9459090A
:101E500004E610E029EB30E04CE850E067E870E081
:101E60008AEA94E00E9411272AEA30E042E350E037
:101E700066E970E08AEA94E00E9411272FEF4FEFA5
:101E80006FEF86EA94E00E94590906E910E010938A
:101E90007805009377058BE490E090937A05809322
:101EA00079056091800570918105809182059091FE
:101EB00083050E946C3920E030E04AE754E40E9438
:101EC000D138AB01BC0123E030E086EA94E00E9407
:101ED00082376CEE71E086EA94E00E94C835109378
:101EE00078050093770584E690E090937A058093D7
:101EF00079056091260170912701809128019091C8
:101F000029010E946C3920E030E04AE754E40E9445
:101F1000D138AB01BC0123E030E086EA94E00E94B6
:101F200082376CEE71E086EA94E00E94C835109327
:101F30007805009377058DE790E090937A0580937C
:101F400079054091860450918704609188047091CE
:101F500089042AE030E086EA94E00E942E3668E0A8
:101F600073E086EA94E00E94C835F8940F900F90D1
:101F7000DF91CF911F910F91FF90EF900895CF9235
:101F8000DF92EF92FF920F931F93CF93DF9300D0D6
:101F9000CDB7DEB7F8948AEA94E00E94372769E764
:101FA00079E08AEA94E00E94AE3084E190E0909378
:101FB00078058093770589E190E090937A05809386
:101FC000790581E090E090938D0480938C0480915A
:101FD0008A0490918B04039729F567E072E086EA02
:101FE00094E00E94C83560E875E080E490E00E94CB
:101FF0009A0966E271E080E590E00E949A0966E83D
:1020000074E080E690E00E949A0985E890E09A8367
:102010008983CE0101960E94630990E09093150197
:102020008093140180918A0490918B04049729F580
:1020300061E272E086EA94E00E94C83560E875E0EB
:1020400085E490E00E949A0966E271E085E590E0FF
:102050000E949A0966E874E085E690E00E949A0979
:1020600080E990E09A838983CE0101960E946309FA
:1020700090E090931501809314012FEF4FEF6FEFD5
:1020800086EA94E00E9459093AE0E32EF12CF0929E
:102090007805E09277054BE4C42ED12CD0927A05D6
:1020A000C092790569E372E086EA94E00E94C8353F
:1020B00006E910E01093780500937705D0927A0531
:1020C000C0927905609180057091810580918205AB
:1020D000909183050E946C3920E030E04AE754E497
:1020E0000E94D138AB01BC0123E030E086EA94E0E5
:1020F0000E9482376CEE71E086EA94E00E94C83557
:10210000F0927805E092770554E6C52ED12CD09256
:102110007A05C092790562E472E086EA94E00E9452
:10212000C8351093780500937705D0927A05C09250
:102130007905609126017091270180912801909185
:1021400029010E946C3920E030E04AE754E40E9403
:10215000D138AB01BC0123E030E086EA94E00E9474
:1021600082376CEE71E086EA94E00E94C835F09206
:102170007805E09277056DE7E62EF12CF0927A056E
:10218000E09279056AE472E086EA94E00E94C8353C
:102190001093780500937705F0927A05E09279051F
:1021A000409186045091870460918804709189045D
:1021B0002AE030E086EA94E00E942E360AE010E041
:1021C00070EAE72EF12C8EE00E946D34019709F041
:1021D000BBC080E10E946D34892B31F081E10E9407
:1021E0006D34892B81F01DC080918C0490918D04F9
:1021F000019790938D0480938C0480E10E946D344C
:10220000892BD9F3EBCF80918C0490918D040196AA
:1022100090938D0480938C0481E10E946D34892B0E
:10222000D9F380918C0490918D04181619061CF036
:1022300081E090E005C08430910514F083E090E0E7
:1022400090938D0480938C04109378050093770508
:10225000F0927A05E09279052FEF4FEF6FEF823021
:10226000910521F1039709F442C086EA94E00E94A7
:10227000590964E572E086EA94E00E94C83520E0DE
:1022800040E06FEF86EA94E00E9459096EE572E043
:1022900086EA94E00E94C8352FEF4FEF6FEF86EA91
:1022A00094E00E94590966E572E041C086EA94E034
:1022B0000E9459096DE572E086EA94E00E94C835F3
:1022C00020E040E06FEF86EA94E00E94590964E65E
:1022D00072E086EA94E00E94C8352FEF4FEF6FEF6F
:1022E00086EA94E00E94590968E572E020C086EA17
:1022F00094E00E94590961E672E086EA94E00E9447
:10230000C83520E040E06FEF86EA94E00E9459096A
:1023100067E672E086EA94E00E94C8352FEF4FEF3F
:102320006FEF86EA94E00E94590964EB71E086EA57
:1023300094E00E94C8358FE00E946D34892B09F02B
:1023400042CF0E94880D3FCF8AEA94E00E9437274F
:1023500078940F900F90DF91CF911F910F91FF9084
:10236000EF90DF90CF90089561E084E00E943734D1
:1023700061E070E080E090E00E94473360E084E03C
:102380000E94373461E087E00E94373460E087E0E4
:102390000E94373461E086E00E94373460E086E0D6
:1023A0000C943734CF92DF92EF92FF9220E030E02E
:1023B00040E85FE40E94203A6B017C0160912A01B1
:1023C00070912B0180912C0190912D010E946A390E
:1023D0009B01AC01C701B6010E94D1380E943E3971
:1023E0006B017C012AE030E0AB01BC0183E995E0A0
:1023F0000E94853661E086E00E94373460E086E026
:102400000E9437342C2D40E067E085E00E9496342E
:1024100055274F2D3E2D2D2D40E067E085E00E9491
:10242000963497014427552740E067E085E00E94F5
:1024300096342F2D33274427552740E067E085E069
:102440000E94963420E040E067E085E00E949634E8
:1024500061E086E00E94373460E086E0FF90EF9014
:10246000DF90CF900C943734EF92FF920F931F932D
:10247000CF93DF938AEA94E00E94372760E070E010
:10248000CB010E94D21110928B0410928A0469E74A
:1024900079E08AEA94E00E94AE3007E715E08DE724
:1024A00090E0F80191838083C9E7D5E083E290E072
:1024B000998388836AE672E086EA94E00E94C835D0
:1024C0002FEF4FEF6FEF86EA94E00E945909BAE0D0
:1024D000EB2EF12CF801F182E08286E490E0998302
:1024E000888364E471E086EA94E00E94C835F801CC
:1024F000F182E0828FE590E09983888368E571E05E
:1025000086EA94E00E94C835F801F182E08288E70B
:1025100090E09983888367E671E086EA94E00E9400
:10252000C835F801F182E08281E990E099838883DF
:102530006DE771E086EA94E00E94C835F801F18207
:10254000E0828AEA90E09983888361E971E086EA13
:1025500094E00E94C835F801F182E08283EC90E0BB
:10256000998388836FE271E086EA94E00E94C8351F
:102570008EE190E0F801918380838BEE90E0998367
:1025800088836DE272E08AEA94E00E94AE3020EF28
:1025900040EF60E086EA94E00E94590963E772E048
:1025A00086EA94E0DF91CF911F910F91FF90EF9019
:1025B0000C94C8351F920F920FB60F9211240F93EF
:1025C0001F932F933F934F935F936F937F938F93BB
:1025D0009F93AF93BF93EF93FF9383EA94E00E949E
:1025E000B932882309F40BC320918A0430918B04FB
:1025F000803109F05FC121303105E1F48091100193
:1026000090911101A0911201B09113014091160116
:10261000509117016091180170911901840F951F55
:10262000A61FB71F8093100190931101A093120170
:10263000B0931301235031092230310508F008C14D
:1026400020E040E060E086EA94E00E9459090EE153
:1026500010E02CE830E04CEA50E065EA70E08AEAED
:1026600094E00E94112720EF40EF60E086EA94E0BA
:102670000E94590980918C0490918D04019709F072
:102680004BC08091800590918105A0918205B09109
:1026900083054091160150911701609118017091C6
:1026A0001901840F951FA61FB71F813C2BE39207CA
:1026B00027E4A20723E0B20724F080EC9BE3A7E421
:1026C000B3E0BC01CD0197FF03C060E070E0CB0137
:1026D00060938005709381058093820590938305B4
:1026E00024EB30E0309378052093770523EC30E03D
:1026F00030937A05209379050E946C3920E030E010
:102700004AE754E40E94D138AB01BC0123E030E039
:1027100086EA94E00E94823780918C0490918D0427
:10272000029709F04BC08091260190912701A0915A
:102730002801B09129014091160150911701609133
:10274000180170911901840F951FA61FB71F813CB6
:102750002BE3920727E4A20723E0B20724F080ECE2
:102760009BE3A7E4B3E0BC01CD0197FF03C060E0A9
:1027700070E0CB01609326017093270180932801BC
:102780009093290124EB30E030937805209377056E
:1027900023EC30E030937A05209379050E946C3960
:1027A00020E030E04AE754E40E94D138AB01BC019C
:1027B00023E030E086EA94E00E94823780918C0426
:1027C00090918D04039709F043C080918604909105
:1027D0008704A0918804B09189044091160150911A
:1027E00017016091180170911901840F951FA61FA0
:1027F000B71F8F319105A105B10524F08EE190E05E
:10280000A0E0B0E0AC01BD01423E8FEF5807680781
:10281000780724F442EE5FEF6FEF7FEF409386047A
:1028200050938704609388047093890484EB90E04C
:10283000909378058093770583EC90E090937A05E8
:10284000809379052AE030E086EA94E00E942E36F3
:1028500080918A0490918B04059709F0D0C18091F2
:10286000160190911701A0911801B09119014091A2
:102870002A0150912B0160912C0170912D01840F40
:10288000951FA61FB71F81152AE5920722E6A2070A
:1028900022E0B20708F46BC181382BE9920722E8E5
:1028A000A20727E0B20708F466C180E89BE9A2E826
:1028B000B7E061C121303105E1F4809110019091C0
:1028C0001101A0911201B091130140911601509194
:1028D00017016091180170911901841B950BA60BCB
:1028E000B70B8093100190931101A0931201B09344
:1028F0001301235031092230310508F008C120E0CE
:1029000040E060E086EA94E00E9459090EE110E0A0
:102910002CE830E04CEA50E065EA70E08AEA94E0A6
:102920000E94112720EF40EF60E086EA94E00E94C9
:10293000590980918C0490918D04019709F04BC046
:102940008091800590918105A0918205B0918305C9
:102950004091160150911701609118017091190171
:10296000841B950BA60BB70B813C2BE3920727E446
:10297000A20723E0B20724F080EC9BE3A7E4B3E0D6
:10298000BC01CD0197FF03C060E070E0CB01609314
:10299000800570938105809382059093830524EBD5
:1029A00030E0309378052093770523EC30E03093C6
:1029B0007A05209379050E946C3920E030E04AE7DF
:1029C00054E40E94D138AB01BC0123E030E086EA38
:1029D00094E00E94823780918C0490918D0402973C
:1029E00009F04BC08091260190912701A091280108
:1029F000B091290140911601509117016091180181
:102A000070911901841B950BA60BB70B813C2BE32E
:102A1000920727E4A20723E0B20724F080EC9BE3AF
:102A2000A7E4B3E0BC01CD0197FF03C060E070E014
:102A3000CB01609326017093270180932801909326
:102A4000290124EB30E0309378052093770523ECBF
:102A500030E030937A05209379050E946C3920E0AC
:102A600030E04AE754E40E94D138AB01BC0123E0D6
:102A700030E086EA94E00E94823780918C04909145
:102A80008D04039709F043C08091860490918704D8
:102A9000A0918804B09189044091160150911701CA
:102AA0006091180170911901841B950BA60BB70B4F
:102AB0008F319105A105B10524F08EE190E0A0E0F1
:102AC000B0E0AC01BD01423E8FEF580768077807C0
:102AD00024F442EE5FEF6FEF7FEF40938604509354
:102AE0008704609388047093890484EB90E090934A
:102AF00078058093770583EC90E090937A05809336
:102B000079052AE030E086EA94E00E942E36809132
:102B10008A0490918B04059709F071C080912A0175
:102B200090912B01A0912C01B0912D0140911601A3
:102B3000509117016091180170911901841B950B38
:102B4000A60BB70B81152AE5920722E6A20722E021
:102B5000B20768F0813025E992072AEBA2072AE044
:102B6000B20748F080E095E9AAEBBAE004C080E043
:102B70009AE5A2E6B2E080932A0190932B01A093FC
:102B80002C01B0932D0120E040E060E086EA94E063
:102B90000E9459090EE110E02CE830E04CEA50E0C8
:102BA00065EA70E08AEA94E00E94112720EF40EF86
:102BB00060E086EA94E00E94590984EB90E09093EB
:102BC00078058093770583EC90E090937A05809365
:102BD000790540912A0150912B0160912C0170914F
:102BE0002D012AE030E086EA94E00E94783660E821
:102BF00076E988E19BE40E94D2110E94D20A80917A
:102C00008A0490918B04019709F5809110019091AD
:102C10001101A0911201B0911301813C2BE39207A5
:102C200027E4A20723E0B20724F080EC9BE3A7E4AB
:102C3000B3E0B7FF03C080E090E0DC0180931001B7
:102C400090931101A0931201B0931301FF91EF91A2
:102C5000BF91AF919F918F917F916F915F914F91B4
:102C60003F912F911F910F910F900FBE0F901F90CA
:102C70001895CF93DF9324E644E664E686EA94E071
:102C80000E945909CAE0D0E022ED30E049E150E06D
:102C9000BE018AEA94E00E944B316E96C43581E011
:102CA000D80791F7CBEED0E02CE231E0AE016AE03C
:102CB00070E08AEA94E00E9439316E97CB3F8FEF43
:102CC000D80791F7DF91CF9108956091A00470919A
:102CD000A104882777FD8095982F0E946C39209158
:102CE00008013091090140910A0150910B010E94A5
:102CF000203A209104013091050140910601509144
:102D000007010E94693860938E0470938F0480934A
:102D100090049093910408952F923F924F925F9266
:102D20006F927F928F929F92AF92BF92CF92DF92DB
:102D3000EF92FF920F931F93CF93DF9382E090E087
:102D400090938B0480938A042FEF4FEF6FEF86EA06
:102D500094E00E94590969E779E08AEA94E00E94C8
:102D6000AE308AE090E090937805809377058EE10D
:102D700090E090937A058093790567E872E086EA9F
:102D800094E00E94C835C4E6D0E01AEFE12EF12CA1
:102D900004EB202E312C82ED882E912C98E4C92E44
:102DA000D12C22E3A22EB12C8EE00E946D3401972B
:102DB00009F05EC183E10E94B8339093A10480932F
:102DC000A0040E94651620911C0130911D014091C4
:102DD0001E0150911F0160918E0470918F048091AB
:102DE0009004909191040E94CD38882309F429C160
:102DF0006AE676E08AEA94E00E94AE3020E040E0A5
:102E000060E086EA94E00E94590940901C015090CD
:102E10001D0160901E0170901F0120E030E0A901AB
:102E2000C301B2010E94CD3887FF05C0B09278057A
:102E3000A092770504C0D0927805C0927705D09310
:102E40007A05C093790521E030E0B301A20186EA5A
:102E500094E00E94823724E644E66FEF86EA94E02D
:102E60000E94590940908E0450908F046090900405
:102E70007090910420E030E0A901C301B2010E94EA
:102E8000CD3887FF05C0B0927805A092770504C0C1
:102E9000D0927805C0927705D0937A05C0937905D2
:102EA00021E030E0B301A20186EA94E00E9482377B
:102EB00088EC90E09093780580937705D0937A051D
:102EC000C09379052FEF4FEF6FEF86EA94E00E94F1
:102ED000590969E779E08AEA94E00E94AE3068E037
:102EE00073E086EA94E00E94C83520E030E040E2DA
:102EF00051E460918E0470918F04809190049091C0
:102F000091040E94D1389B01AC0160E070E080E246
:102F100091E40E94833A2B013C0120E040E060E014
:102F200086EA94E00E94590908E710E024E630E0C0
:102F300048E750E066E970E08AEA94E00E941127D1
:102F40002FEF4FEF6FEF86EA94E00E94590906E9F0
:102F500010E0109378050093770510937A0500939D
:102F6000790525E030E0B301A20186EA94E00E94F1
:102F70008237F0927805E092770510937A050093F6
:102F8000790563E972E086EA94E00E94C83520E0A2
:102F900030E048E452E4C301B2010E94203A20E04C
:102FA00030E04AE754E40E94D1380E94D33AAB01A2
:102FB000BC01109378050093770530927A05209232
:102FC000790522E030E086EA94E00E948237F092B0
:102FD0007805E092770530927A052092790566E9C6
:102FE00072E086EA94E00E94C83521EE3AEF45EDA2
:102FF00052E460918E0470918F04809190049091BE
:1030000091040E946938AB01BC01109378050093CC
:10301000770590927A058092790522E030E086EA81
:1030200094E00E948237F0927805E09277059092C2
:103030007A05809279056BE972E086EA94E00E9455
:10304000C83580918E0490918F04A0919004B09126
:10305000910480931C0190931D01A0931E01B093D5
:103060001F0168EE73E080E090E00E9447339CCE41
:1030700080E090E0A8ECB2E480931C0190931D01E5
:10308000A0931E01B0931F010E943412DF91CF91D3
:103090001F910F91FF90EF90DF90CF90BF90AF9076
:1030A0009F908F907F906F905F904F903F902F9068
:1030B0000C94FA0A8F929F92AF92BF92CF92DF92B6
:1030C000EF92FF920F931F93CF93DF9380918A0427
:1030D00090918B04039709F032C22FEF4FEF60E01D
:1030E00086EA94E00E9459096091940470919504D5
:1030F000665F7F4F22ED30E049E150E08AEA94E0DC
:103100000E944B312EE148E76AEF86EA94E00E9484
:1031100059096091920470919304665F7F4F22ED8C
:1031200030E049E150E08AEA94E00E944B3180911E
:10313000260190912701A0912801B0912901409189
:103140008005509181056091820570918305841BF3
:10315000950BA60BB70B813E9349A440B1050CF02B
:10316000EEC12FEF4FEF6FEF86EA94E00E9459090E
:103170006DE272E08AEA94E00E94AE308AEA90E062
:10318000909378058093770585E290E090937A0597
:103190008093790560EA72E086EA94E00E94C8357F
:1031A000C0909A04D0909B04E0909C04F0909D0401
:1031B0008091800590918105A0918205B091830551
:1031C00028EEC21A23E0D20AE108F108C816D9068F
:1031D000EA06FB0614F46C017D01812C912C54014C
:1031E0008091260190912701A0912801B091290199
:1031F000C80CD91CEA1CFB1C8C159D05AE05BF052F
:1032000014F46C017D01C701B6010E946C390E9463
:10321000D21183E10E94B8339093A1048093A0045B
:1032200020919E0430919F042817390764F49093ED
:103230009F0480939E04C0929A04D0929B04E092D3
:103240009C04F0929D048FEF881A980AA80AB80A85
:1032500021ED821627E09206A104B10409F6C09080
:103260009604D0909704E0909804F090990480918F
:10327000800590918105A0918205B091830528EE8B
:10328000C21A23E0D20AE108F108C816D906EA06F4
:10329000FB0614F46C017D01812C912C540180916A
:1032A000260190912701A0912801B0912901C80C15
:1032B000D91CEA1CFB1C8C159D05AE05BF0514F43A
:1032C0006C017D01C701B6010E946C390E94D211C8
:1032D00083E10E94B8339093A1048093A0042091CD
:1032E0002401309125018217930764F490932501FE
:1032F00080932401C0929604D0929704E09298049F
:10330000F09299048FEF881A980AA80AB80A21ED5A
:10331000821627E09206A104B10409F620E040E0FD
:1033200060E086EA94E00E9459096DE272E08AEA60
:1033300094E00E94AE308AEA90E090937805809302
:10334000770505E210E010937A050093790560EAAD
:1033500072E086EA94E00E94C8352EE148E76AEF01
:1033600086EA94E00E9459096DE272E08AEA94E0EC
:103370000E94AE30CBE9D0E0D0937805C0937705BA
:1033800010937A050093790580919E0490919F0493
:103390009093A1048093A0040E9465162FEF4FEF35
:1033A00060E086EA94E00E94590940918E045091B1
:1033B0008F04609190047091910422E030E086EADD
:1033C00094E00E9482376EEA72E086EA94E00E94FE
:1033D000C83560919A0470919B0480919C049091EF
:1033E0009D040E946C3920E030E04AE754E40E94DA
:1033F000D138AB01BC0123E030E086EA94E00E94C2
:1034000082376CEE71E086EA94E00E94C8352EE1C6
:1034100048E76AEF86EA94E00E945909D09378055C
:10342000C093770584E390E090937A0580937905C3
:1034300080912401909125019093A1048093A00490
:103440000E94651640918E0450918F046091900403
:103450007091910422E030E086EA94E00E94823785
:103460006EEA72E086EA94E00E94C83560919604A4
:103470007091970480919804909199040E946C39FE
:1034800020E030E04AE754E40E94D138AB01BC01AF
:1034900023E030E086EA94E00E9482376CEE71E02F
:1034A00086EA94E00E94C8352FEF4FEF6FEF86EA6F
:1034B00094E00E945909D0937805C093770583E47E
:1034C00090E090937A058093790563EB72E086EA49
:1034D00094E00E94C83560919604709197048091A1
:1034E000980490919904C0909A04D0909B04E09025
:1034F0009C04F0909D046C197D098E099F090E941F
:103500006C399F770E943939AB01BC012AE030E069
:1035100086EA94E00E942E3668ED71E086EA94E037
:103520000E94C83581E08093A2048FEF93E09093CE
:1035300025018093240110929F0410929E04809193
:103540008A0490918B04049709F030C12EE148E77A
:103550006AEF86EA94E00E945909609192047091A2
:103560009304665F7F4F22ED30E049E150E08AEA44
:1035700094E00E944B316DE272E08AEA94E00E948E
:10358000AE30CBE9D0E0D0937805C093770585E2E3
:1035900090E090937A05809379052FEF4FEF60E0EC
:1035A00086EA94E00E94590980919E0490919F04BC
:1035B0009093A1048093A0040E94651640918E040C
:1035C00050918F04609190047091910422E030E05A
:1035D00086EA94E00E948237C0908E04D0908F04D7
:1035E000E0909004F09091046CEB72E086EA94E035
:1035F0000E94C83560919A0470919B0480919C044C
:1036000090919D040E946C3920E030E04AE754E438
:103610000E94D138AB01BC0123E030E086EA94E09F
:103620000E9482376CEE71E086EA94E00E94C83511
:10363000D0937805C093770584E390E090937A0562
:10364000809379052EE148E76AEF86EA94E00E94CC
:10365000590980912401909125019093A1048093B0
:10366000A0040E94651640918E0450918F046091D1
:1036700090047091910422E030E086EA94E00E9488
:10368000823780908E0490908F04A0909004B09028
:1036900091046CEB72E086EA94E00E94C835609178
:1036A00096047091970480919804909199040E94D7
:1036B0006C3920E030E04AE754E40E94D138AB0195
:1036C000BC0123E030E086EA94E00E9482376CEE91
:1036D00071E086EA94E00E94C835A5019401C70113
:1036E000B6010E94683820E030E040EA51E40E94D0
:1036F000D1389B01AC0160E070E080E291E40E946F
:10370000833A6B017C0120E030E040E85FE30E94F7
:1037100069384B015C01A701960160E070E080E828
:103720009FE30E9468389B01AC01C501B4010E946F
:10373000D138DC01CB01B058809300019093010196
:10374000A0930201B09303012FEF4FEF6FEF86EAD2
:1037500094E00E945909D0937805C093770583E4DB
:1037600090E090937A058093790562EC72E086EAA6
:1037700094E00E94C8354091000150910101609190
:1037800002017091030122E030E086EA94E00E9499
:10379000823781E08093A2048FEF93E0909325011C
:1037A0008093240110929F0410929E04DF91CF9188
:1037B0001F910F91FF90EF90DF90CF90BF90AF904F
:1037C0009F908F9008952F923F924F925F926F92A9
:1037D0007F928F929F92AF92BF92CF92DF92EF92A1
:1037E000FF920F931F93CF93DF9300D0CDB7DEB737
:1037F00080E09EE7A6E5B3E080930C0190930D0175
:10380000A0930E01B0930F0180E090E0A8ECB2E429
:1038100080931C0190931D01A0931E01B0931F0182
:1038200081E090E090938B0480938A0460E171E0E2
:1038300080E790E00E949A0980E890E09A8389836B
:10384000CE0101960E9463098093140181E890E003
:103850009A838983CE0101960E94630980931501A2
:103860008AEA94E00E9437272FEF4FEF6FEF86EA46
:1038700094E00E94590969E779E08AEA94E00E949D
:10388000AE300AE010E010937805009377058EE1E2
:1038900090E090937A058093790567E471E086EA79
:1038A00094E00E94C83510937805009377058BE962
:1038B00090E090937A058093790567E872E086EA54
:1038C00094E00E94C83560911001709111018091BF
:1038D0001201909113010E946C390E94D2110E9432
:1038E000310C64E6E62EF12C78E1672E7724739490
:1038F000EFE5AE2EB12CF3E78F2E912C30EA232E7C
:1039000036E8332E44244394512C48E0C42ED12C65
:103910008EE00E946D34019709F0B1C160911001F1
:1039200070911101809112019091130100910C018D
:1039300010910D0120910E0130910F016017710758
:103940008207930709F4B8C00E946C390E94D21113
:1039500020E040E060E086EA94E00E94590908E235
:1039600010E028EE30E04CE350E06FE270E08AEACD
:1039700094E00E9411278091100190911101A09173
:103980001201B091130180930C0190930D01A0934B
:103990000E01B0930F016AE676E08AEA94E00E9495
:1039A000AE3024E644E66FEF86EA94E00E945909BF
:1039B0004091100150911101609112017091130119
:1039C00077FD88C14A305105610571050CF485C148
:1039D00044365105610571050CF482C1483E83E00F
:1039E0005807610571050CF47EC1403197E2590713
:1039F000610571050CF47AC1403A86E8580781E008
:103A0000680771050CF475C1403492E459079FE0D2
:103A1000690771050CF470C1403886E9580788E9D8
:103A2000680771051CF48BE490E002C08FE290E01F
:103A30009093780580937705F0927A05E092790566
:103A40002AE030E086EA94E00E942E3670927805F3
:103A500060927705F0927A05E09279052FEF4FEFAB
:103A60006FEF86EA94E00E94590969E779E08AEAF3
:103A700094E00E94AE3068ED71E086EA94E00E9426
:103A8000C8356DE272E08AEA94E00E94AE302FEF12
:103A90004FEF6FEF86EA94E00E945909B0927805E3
:103AA000A092770590927A058092790569EC72E090
:103AB00086EA94E00E94C83580E10E946D34892B2B
:103AC00031F081E10E946D34892B59F122C080913F
:103AD00014019091150101971816190614F081E050
:103AE00090E090931501809314010E94310C64E1E1
:103AF00071E080E890E00E940E0A80E10E946D343F
:103B0000892BF9F66AE070E080E090E00E9447338C
:103B1000F4CF91E0291A31084108510809F0F8CE94
:103B200025C080911401909115010196893091056D
:103B30002CF4909315018093140104C0D0921501C8
:103B4000C09214010E94310C64E171E080E890E0C1
:103B50000E940E0A81E10E946D34892BD1F66AE041
:103B600070E080E090E00E944733F4CF83E10E9450
:103B7000B8339093A1048093A0040E94651620910D
:103B80001C0130911D0140911E0150911F01609157
:103B90008E0470918F0480919004909191040E9402
:103BA000CD38882309F4AACE69E779E08AEA94E05F
:103BB0000E94AE3020E040E060E086EA94E00E949F
:103BC000590958E7C52ED12CD0927805C0927705B7
:103BD00004EB10E010937A050093790540911C01E5
:103BE00050911D0160911E0170911F0121E030E094
:103BF00086EA94E00E94823720EF40EF60E086EA98
:103C000094E00E945909D0927805C09277051093EC
:103C10007A050093790540918E0450918F0460914C
:103C200090047091910421E030E086EA94E00E94D3
:103C30008237109378050093770510937A050093E7
:103C400079052FEF4FEF6FEF86EA94E00E94590954
:103C500068E073E086EA94E00E94C83580918E04A3
:103C600090918F04A0919004B091910480931C01D5
:103C700090931D01A0931E01B0931F013FCE60E100
:103C800071E080E790E00E94360A80E090E0A8ECC6
:103C9000B2E480931C0190931D01A0931E01B09388
:103CA0001F010E9434120E94FA0A0F900F90DF91B8
:103CB000CF911F910F91FF90EF90DF90CF90BF9029
:103CC000AF909F908F907F906F905F904F903F90BC
:103CD0002F90089582E390E0ABCE83EF90E0A8CEE2
:103CE00087ED90E0A5CE8BEB90E0A2CE8FE990E03F
:103CF0009FCE83E890E09CCE87E690E099CE2F920D
:103D00003F924F925F926F927F928F929F92AF926B
:103D1000BF92CF92DF92EF92FF920F931F93CF93B8
:103D2000DF9310929F0410929E048FEF93E0909384
:103D30002501809324010E94BF0F81E090E09093C1
:103D40008D0480938C040E943916F89400918005AC
:103D500010918105209182053091830560912601A3
:103D60007091270180912801909129010115110579
:103D70002105310521F0601B710B820B930B2CE2A6
:103D800031E040E050E00E946B3CCA01B9010E9462
:103D90006C3960937C0570937D0580937E059093CC
:103DA0007F05A4E1CA2ED12CBAEF6B2E712CC8E787
:103DB000AC2EB12CDBEE8D2E912C8EE00E946D345A
:103DC000019709F0D5C18CE090E09093780580933D
:103DD0007705D0927A05C09279056DE272E08AEAA1
:103DE00094E00E94AE3020E040E06FEF86EA94E07D
:103DF0000E9459096091800570918105809182052A
:103E0000909183050E946C3920E030E04AE754E449
:103E10000E94D138AB01BC0123E030E086EA94E097
:103E20000E9482377092780560927705D0927A0569
:103E3000C092790560912601709127018091280137
:103E4000909129010E946C3920E030E04AE754E467
:103E50000E94D138AB01BC0123E030E086EA94E057
:103E60000E9482372FEF4FEF6FEF86EA94E00E94B7
:103E70005909B0927805A0927705D0927A05C09240
:103E8000790567ED72E086EA94E00E94C8354091BA
:103E900086045091870460918804709189042AE017
:103EA00030E086EA94E00E942E368AE090E090931B
:103EB00023018093220190922101809220012FEF13
:103EC0004FEF6FEF86EA94E00E9459098FE090E08F
:103ED000909378058093770588EE90E090937A052B
:103EE00080937905609126017091270180912801C6
:103EF0009091290100918005109181052091820502
:103F000030918305601B710B820B930B0E946C39FF
:103F100020E030E04AE754E40E94D1381B012C0134
:103F200063EE72E086EA94E00E94C83523E030E058
:103F3000B201A10186EA94E00E9482376CEE71E042
:103F400086EA94E00E94C835C1E0D0E06091800527
:103F50007091810580918205909183050E946C3952
:103F60001B012C01BE01882777FD8095982F0E94A8
:103F70006C3920917C0530917D0540917E055091F2
:103F80007F050E94203A9B01AC01C201B1010E9451
:103F900069380E9439396093840570938505809350
:103FA0008605909387050E946C390E94D21161E0CA
:103FB00070E080E090E00E94473383E10E94B833D4
:103FC0009093A1048093A0040E94651620E030E045
:103FD00040E450E460918E0470918F0480919004CD
:103FE000909191040E94203A9B01AC0160E070E046
:103FF00080ED91E40E9468381B012C012091860419
:10400000309187044091880450918904A3E0B0E086
:104010000E94903C0E946C399B01AC01C201B1012D
:104020000E9469380E943939693171054CF07B0171
:104030009CEEE916F1043CF00BEEE02EF12C03C0EF
:1040400019E1E12EF12C20E04FEF60E086EA94E0E8
:104050000E94590960912201709123019B012F5FF9
:104060003F4F409120015091210187018AEA94E05D
:104070000E945F31809122019091230101969093DB
:10408000230180932201F0922101E092200180918E
:10409000A0049091A10420919E0430919F042817C0
:1040A0003907C4F490939F0480939E044091840543
:1040B00050918505609186057091870540939A041B
:1040C00050939B0460939C0470939D04D09395043B
:1040D000C093940420912401309125018217930705
:1040E000C4F49093250180932401809184059091DC
:1040F0008505A0918605B0918705809396049093DD
:104100009704A0939804B0939904D0939304C09318
:1041100092042196CD3281E0D80709F017CF809123
:10412000A204811102C00E945A1881E10E946D34DC
:10413000892B09F042CE20E040E060E086EA94E07E
:104140000E94590900EF10E026E331E049E150E018
:104150006AE070E08AEA94E00E9411270E94391612
:104160001092A20481E10E946D34892BD9F325CEEF
:1041700078940E9434120E94FA0A1092A204DF91ED
:10418000CF911F910F91FF90EF90DF90CF90BF9054
:10419000AF909F908F907F906F905F904F903F90E7
:1041A0002F9008958F929F92AF92BF92CF92DF92FD
:1041B000EF92FF92CF93DF9386E090E090938B0491
:1041C00080938A042FEF4FEF6FEF86EA94E00E940E
:1041D000590969E779E08AEA94E00E94AE308AE002
:1041E00090E090937805809377058EE190E090932E
:1041F0007A058093790562E371E086EA94E00E9493
:10420000C8356DE272E08AEA94E00E94AE30C4E103
:10421000D0E0D0937805C09377058CE390E090933D
:104220007A058093790569EE72E086EA94E00E944F
:10423000C835409108015091090160910A017091BF
:104240000B0122E030E086EA94E00E94823764EFBE
:1042500072E086EA94E00E94C835409104015091D2
:104260000501609106017091070122E030E086EAC5
:1042700094E00E948237D0937805C093770580E55B
:1042800090E090937A058093790561E073E086EA87
:1042900094E00E94C835D0937805C093770584E6F2
:1042A00090E090937A05809379056CE073E086EA5C
:1042B00094E00E94C8358FE00E946D340197D9F3D5
:1042C00083E10E94B833BC01882777FD8095982F41
:1042D0000E946C396B017C01C4E1D0E0D093780579
:1042E000C093770588E790E090937A0580937905ED
:1042F00069E273E086EA94E00E94C83522E030E08B
:10430000B701A60186EA94E00E948237D09378052F
:10431000C09377058CE890E090937A0580937905B7
:1043200068E373E086EA94E00E94C835D09378058C
:10433000C093770580EA90E090937A0580937905A1
:1043400065E473E086EA94E00E94C8358FE00E943D
:104350006D340197D9F383E10E94B833BC018827FB
:1043600077FD8095982F0E946C394B015C01C4E168
:10437000D0E0D0937805C093770584EB90E09093DC
:104380007A058093790563E673E086EA94E00E94FB
:10439000C83522E030E0B501A40186EA94E00E942D
:1043A0008237A5019401C701B6010E9468389B01BC
:1043B000AC0160E070E088E492E40E94D138609340
:1043C00008017093090180930A0190930B01A701E2
:1043D00096010E94203A9B01AC0160E070E0CB01A5
:1043E0000E94683860930401709305018093060170
:1043F00090930701D0937805C093770588EC90E0FF
:1044000090937A05809379056DEE72E086EA94E0E8
:104410000E94C835409108015091090160910A013C
:1044200070910B0122E030E086EA94E00E9482372E
:1044300062E773E086EA94E00E94C8354091040187
:1044400050910501609106017091070122E030E072
:1044500086EA94E00E94823768E071E080E091E0B3
:104460000E946A0A64E071E080E291E00E946A0AB8
:10447000D0937805C09377058CED90E090937A0502
:10448000809379056BE773E086EA94E00E94C83573
:104490008EE00E946D340197D9F30E943412DF91AF
:1044A000CF91FF90EF90DF90CF90BF90AF909F9013
:1044B0008F900C94FA0A0F931F93CF93DF9385E0AC
:1044C00090E090938B0480938A0483E090E0A0E0D6
:1044D000B0E08093160190931701A0931801B09358
:1044E00019010E94CC0969E779E08AEA94E00E9408
:1044F000AE3020EF40EF60E086EA94E00E94590978
:1045000084EB90E0909378058093770583EC90E0BE
:1045100090937A058093790540912A0150912B015F
:1045200060912C0170912D012AE030E086EA94E040
:104530000E94783660E876E988E19BE40E94D21117
:104540002FEF4FEF6FEF86EA94E00E94590969E779
:1045500079E08AEA94E00E94AE30CAE0D0E0D093DD
:104560007805C09377058EE190E090937A0580936B
:10457000790563E973E086EA94E00E94C8356DE24C
:1045800072E08AEA94E00E94AE30D0937805C0933E
:10459000770586E490E090937A058093790568EA40
:1045A00073E086EA94E00E94C835D0937805C09302
:1045B000770585E590E090937A058093790560ED25
:1045C00073E086EA94E00E94C835D0937805C093E2
:1045D000770584E690E090937A05809379056DEEF7
:1045E00073E086EA94E00E94C835D0937805C093C2
:1045F000770583E790E090937A058093790567E0EB
:1046000074E086EA94E00E94C83520EF40EF60E055
:1046100086EA94E00E94590903E210E026E930E0BE
:104620004AEA50E060EA70E08AEA94E00E945C277F
:1046300083E090E090931501809314010E94310C67
:1046400008E010E08EE00E946D34EC0181309105AD
:1046500009F04AC080E10E946D34892BD9F4209181
:1046600014013091150121503109121613062CF452
:10467000309315012093140104C0D0931501C09309
:1046800014010E94310C20EF40EF60E086EA94E0D4
:104690000E94590980E10E946D34892BD9F381E190
:1046A0000E946D34892BD1F48091140190911501F1
:1046B0000196893091052CF4909315018093140193
:1046C00004C010931501009314010E94310C20EFD7
:1046D00040EF60E086EA94E00E94590981E10E947F
:1046E0006D34892BD9F3AECF8EE00E946D34892BC7
:1046F000D9F30E943412DF91CF911F910F910C9446
:10470000FA0ACF93DF938EE00E946D34892B31F04B
:104710008FE00E946D34892BB9F05CC080911A0142
:1047200090911B0101968830910514F081E090E092
:1047300090931B0180931A010E94FA0A8EE00E9456
:104740006D34892BD9F3E4CFC0911A01D0911B01AC
:10475000C330D10501F16CF4C130D105C1F022970D
:10476000C9F58AEA94E00E943727DF91CF910C9433
:104770008C16C530D10531F1BCF0269759F58AEA7F
:1047800094E00E943727DF91CF910C94D220DF91E3
:10479000CF910C94E31B8AEA94E00E943727D093D0
:1047A0008B04C0938A040AC08AEA94E00E943727E7
:1047B00084E090E090938B0480938A04DF91CF9102
:1047C0000C947F1E8AEA94E00E943727DF91CF91F4
:1047D0000C945B22DF91CF910895CF92DF92EF92FC
:1047E000FF92CF93DF9300D000D0CDB7DEB768E65D
:1047F00081E090E00E94570980E499E5A3E7B7E0E3
:1048000089839A83AB83BC83BE016F5F7F4F80E156
:1048100090E00E94360A8CEE91E5A8EBBDE3898317
:104820009A83AB83BC83BE016F5F7F4F80E091E0D2
:104830000E949E0A88EB9EE1ACEAB2EC89839A83DF
:10484000AB83BC83BE016F5F7F4F80E291E00E942B
:104850009E0A1A821982BE016F5F7F4F80E490E04A
:104860000E940E0A80ECC82E8BE3D82E87E4E82E37
:1048700083E0F82EC982DA82EB82FC82BE016F5F90
:104880007F4F80E590E00E94360A1A821982BE01AD
:104890006F5F7F4F80E690E00E940E0A1A821982B5
:1048A000BE016F5F7F4F85E490E00E940E0AC982CF
:1048B000DA82EB82FC82BE016F5F7F4F85E590E07C
:1048C0000E94360A1A821982BE016F5F7F4F85E609
:1048D00090E00E940E0A80E896E9A8E9B0E089839A
:1048E0009A83AB83BC83BE016F5F7F4F80E790E00C
:1048F0000E94360A67E080E890E00E94570967E06E
:1049000085E890E00E94570967E080E990E00E9406
:1049100057090F900F900F900F90DF91CF91FF905C
:10492000EF90DF90CF900895CF93DF9300D0CDB775
:10493000DEB761E084E00E94FE3361E085E00E9422
:10494000FE3361E086E00E94FE3361E087E00E9472
:10495000FE3362E08EE00E94FE3362E08FE00E9450
:10496000FE3362E081E10E94FE3362E080E10E945A
:10497000FE3380E00E94B5338FE00E946D34892BB6
:1049800011F40E94ED2381E090E09A838983CE01A7
:1049900001960E94630990E09093850480938404BB
:1049A0008836910519F00E94ED2314C00E94CC09AD
:1049B00068E071E080E091E00E94680964E071E0E5
:1049C00080E291E00E94680960E171E080E790E098
:1049D0000E949A0961E086EA94E00E94D1268AEA60
:1049E00094E00E948B32809168008460809368001C
:1049F00080916D008C6080936D0078940E94B4115A
:104A00000E9434120E94FA0A0F900F90DF91CF910A
:104A10000895CF93DF931092A9041092A804C6EAD8
:104A2000D4E083E494E099838883CE010E94EB264E
:104A300083E394E099838883CE010E94EB2687EC80
:104A40009DE2909374058093730583E49DE29093B7
:104A500076058093750588E080933C0589E0809316
:104A60003D058AE080933E05ECE2F2E1E491F0E05E
:104A7000EE0FFF1FEE5BFD4E8591949190934A05DA
:104A800080934905E8E1F2E1E491E0936305EDE20A
:104A9000F2E1E491F0E0EE0FFF1FEE5BFD4E859139
:104AA000949190934C0580934B05E9E1F2E1E491F8
:104AB000E0936405EEE2F2E1E491F0E0EE0FFF1F17
:104AC000EE5BFD4E8591949190934E0580934D053C
:104AD000EAE1F2E1E491E09365058BE394E09093E1
:104AE000A7048093A60443E062E083EA94E0DF91A8
:104AF000CF910C94A032CF93CFB7F89480918905D1
:104B0000811127C0EEE2F2E18491EAE1F2E19491B1
:104B1000E82FF0E0EE0FFF1FE45BFD4EA591B4918E
:104B20008C91892321F461E08AE00E94373461E0AE
:104B30008AE00E94FE338CB580618CBD8CB58064A8
:104B40008CBD61E08DE00E94FE3361E08BE00E944D
:104B5000FE33809189058F5F80938905CFBFCF9108
:104B600008959FB7F89480918905882319F08150A2
:104B70008093890580918905811105C08CB58F7B53
:104B80008CBD109288059FBF0895CF92DF92EF925F
:104B9000FF920F93CF93DF93062F6C0125EDC20E8A
:104BA000D11CEC01CD52DF4F488159817C01E1EDF0
:104BB000EE0EF11CF70160817181F60120810496EF
:104BC0000E941930F6012081213079F040F0223026
:104BD000A1F4F70120813181281B390B0BC0F701AB
:104BE00020813181280F391F05C028813981280F84
:104BF000391F07C03183208306C028813981281BD3
:104C0000390B3983288381E090E0DF91CF910F91B8
:104C1000FF90EF90DF90CF9008958EBD00000DB40F
:104C200007FEFDCF8EB508952CB5982F93702C7F7D
:104C3000922B9CBD9DB582FB882780F99E7F982B87
:104C40009DBD0895EF92FF920F931F93CF93DF9333
:104C50007C01EA0189016A5071096C30710508F024
:104C600097C0645C7F4FFB010C948A3C8D569F4F2C
:104C70007C0181C0C20FD31F6AC0FC01EE56FF4FFA
:104C800080818F3F19F061E00E94FE33F701ED56FD
:104C9000FF4F61E080810E94FE33F701EC56FF4F29
:104CA00080818F3F19F061E00E94FE330E947B25D6
:104CB00084E00E9414268CB5837F8CBD8CB58F7DDB
:104CC0008CBD66C00E94B12563C0CA010E946F33CB
:104CD0005FC0FC01EE56FF4F03C0FC01EC56FF4FD6
:104CE00080818F3F09F454C06C2F05C0FC01ED5644
:104CF000FF4F642F80810E9437344AC0842F0E9466
:104D00000D2646C0209709F443C0F80180810E9417
:104D10000D262197F7CF2097D9F1F80180810E94C5
:104D20000D26F80181810E940D262197F4CF20974E
:104D300079F1F80180810E940D26F80181810E949D
:104D40000D26F80182810E940D262197F0CF0C17C5
:104D50001D07F1F0F80181918F010E940D26F7CF18
:104D6000F801808181110AC0F80181810E940D261D
:104D70000E5F1F4F2197209799F70AC0813011F4D9
:104D800060E001C061E0F70180810E943734ECCF20
:104D900081E090E0DF91CF911F910F91FF90EF9014
:104DA00008951F93CF93DF93162FEC012496FC01F7
:104DB000E153FF4F4081518132976081718122E23E
:104DC00036E2CE010E94E330612FCE01DF91CF9118
:104DD0001F910C941430CF93DF93EC0120E030E06E
:104DE00041EA5BE267E87BE204960E94E330FE0161
:104DF000EF52FF4F1182108232961182108232964A
:104E0000108280E090E02FEFFE01E80FF91FEA56D4
:104E1000FF4F208301968D309105B1F7DF91CF913F
:104E20000895AF92BF92CF92DF92EF92FF920F93CD
:104E30001F93CF93DF937C016B01EA015901101698
:104E4000110654F49501AE01B601C7010E94393133
:104E5000015011092196F3CFDF91CF911F910F914E
:104E6000FF90EF90DF90CF90BF90AF9008950F9399
:104E70001F93CF93DF93EC0100E020E040E060E07F
:104E80000E94EF31CE010E947D2D0B811C81298172
:104E90003A8140E050E060E070E0CE010E941127CE
:104EA0000FEF2FEF4FEF60E0CE010E94EF31DF9167
:104EB000CF911F910F910895AF92BF92CF92DF9241
:104EC000EF92FF920F931F93CF93DF93EC017B013F
:104ED0006A0159010E9439319801A601B701CE013A
:104EE0000E944B31B7016A0D7B1D61507109980119
:104EF000A601CE010E944B31A601400F511F415027
:104F000051099501B701CE01DF91CF911F910F910A
:104F1000FF90EF90DF90CF90BF90AF900C9439311D
:104F20001F93CF93DF93FC01162F6183C42FD0E032
:104F3000C61BD109D583C48321503109318720870D
:104F400081E090E093838283CE01B9010E94353CD9
:104F500077836683D7FF09C0D195C195D109D583E1
:104F6000C4838FEF9FEF9383828384819581B901FE
:104F70000E94353C9387828737FF02C02F5F3F4FE7
:104F800035952795358724871083DF91CF911F9121
:104F90000895FC0146818081480F40838485958572
:104FA00022853385820F931F9587848720853185DD
:104FB000821793073CF05281540F5083821B930B4E
:104FC0009587848708951F93CF93DF93FC01168103
:104FD000169F102D1124108320853185428553851D
:104FE000649FC001659F900D749F900D1124E9018D
:104FF00037FD2196D595C795C80FD91F828193811A
:1050000097FD06C0CE01B9010E94353C160F05C0C0
:10501000CE01B9010E94353C161B1083CE01B901A7
:105020000E94353C9587848780819181890F808398
:10503000DF91CF911F910895FC0123893489E45AAF
:10504000FF4F40815181241B350B37FD0AC0349638
:1050500081E090E0408151812417350724F080E001
:10506000089580E090E00895FC0125893689E25A90
:10507000FF4F40815181241B350B37FD0AC0349608
:1050800081E090E0408151812417350724F080E0D1
:10509000089580E090E00895CF93DF93EC01A8811C
:1050A000B981EB01E881F981A217B30784F44E17A7
:1050B0005F076CF4A417B5071CF4DC014D935C93F7
:1050C0002E173F073CF4EB013983288303C080E0AF
:1050D00090E002C081E090E0DF91CF910895CF93FE
:1050E000DF93EC010E941C28892B59F0CE010E940D
:1050F000342831E020E0892B09F430E0832F922F0F
:1051000002C080E090E0DF91CF9108950F931F934C
:10511000CF93DF9300D000D0CDB7DEB78C01FC0178
:10512000178E168E848D958D81309105F1F11CF4CA
:10513000892B49F0E3C08230910509F46CC00397D4
:1051400009F4A3C0DBC0C8010E943428892B19F4DC
:1051500080E090E0D5C0F801238934893C832B831B
:10516000828D938D820F931F9A838983E45AFF4F18
:1051700040815181349620813181240F351FBE0139
:105180006F5F7F4FCE0103960E944C28892B01F35D
:105190002B813C81F80183899489A901481B590B13
:1051A000578F468F348B238B2FC0C8010E941C2839
:1051B000892B71F2F801258936893C832B83828DF6
:1051C000938D820F931F9A838983E25AFF4F408108
:1051D0005181349620813181240F351FBE016F5FCC
:1051E0007F4FCE0103960E944C28892B09F4B0CF43
:1051F0002B813C81F80185899689A901481B590BAF
:10520000578F468F368B258B89819A81821B930B12
:10521000938F828F73C0C8010E943428892B09F4B0
:1052200097CFF8018389948901969A838983228D87
:10523000338D821B930B9C838B83E45AFF4F4081F9
:105240005181349620813181240F351FBE016F5F5B
:105250007F4FCE0103960E944C28892B09F478CF0A
:1052600029813A818B819C81A901481B590BF80146
:10527000538F428F2150310983899489821B930B6C
:10528000978F868F348B238B39C0C8010E941C28CE
:10529000892B09F45DCFF8018589968901969A8357
:1052A0008983228D338D821B930B9C838B83E25ADF
:1052B000FF4F40815181349620813181240F351F69
:1052C000BE016F5F7F4FCE0103960E944C28892B51
:1052D00009F43ECF29813A818B819C81A901481B29
:1052E000590BF801538F428F2150310985899689D6
:1052F000821B930B978F868F368B258B81E090E0F6
:105300000F900F900F900F90DF91CF911F910F9101
:105310000895EF92FF920F931F93CF93DF93EC01C9
:105320000E948628892B91F08E010E5C1F4F7E0112
:105330008CE5E80EF11C6E8D7F8DC8010E94E3277D
:10534000025F1F4F0E151F05B1F703C080E090E00C
:1053500002C081E090E0DF91CF911F910F91FF900B
:10536000EF900895CF93DF93EC01C953DF4F28816D
:1053700023FF0CC0DC015196ED91FC91529720E087
:1053800030E040E050E06BE070E009958881877F75
:105390008883DF91CF9108950F931F93CF93DF936D
:1053A00000D000D0CDB7DEB78C017A8369835C83EF
:1053B0004B830E94B229F801EA53FF4F1082D801B3
:1053C0005196ED91FC9152979E012F5F3F4F40E027
:1053D00050E06AE070E0C8010995009731F0F801EB
:1053E000E953FF4F2081286020830F900F900F908A
:1053F0000F90DF91CF911F910F910895FF920F931E
:105400001F93CF93DF93F42EEC01CA53DF4F8C012F
:1054100009531F4F38813423611118C029F0D80176
:105420003C91342334132BC0622F70E0DC01519681
:10543000ED91FC91529720E030E040E050E009957A
:105440008F2D8095F8019081892315C0332321F099
:10545000D8013C91342399F4462F50E0622F70E03C
:10546000DC015196ED91FC91529720E030E00995D6
:10547000F80180818F29808388818F298883DF913B
:10548000CF911F910F91FF9008952DE044E00C946F
:10549000FE292EE042E00C94FE292FE041E00C941E
:1054A000FE29AB01DC015196ED91FC91529720E071
:1054B00030E06CE070E009940F931F93CF93DF937B
:1054C0008C01EB01209739F068EE73E0C8010E946F
:1054D000512A2197F7CFDF91CF911F910F91089516
:1054E000462F50E0DC015196ED91FC91529720E05F
:1054F00030E060E170E00994EF92FF920F931F9308
:10550000CF93DF937C018B01EA01040F151FC017B5
:10551000D10781F0FE01449150E0D7015196ED9101
:10552000FC91529720E030E060E170E0C7010995FE
:105530002196EDCFDF91CF911F910F91FF90EF90CA
:1055400008956F927F928F929F92AF92BF92CF9267
:10555000DF92EF92FF920F931F93CF93DF938C0113
:10556000EB017C0188ECE80EF11C77247394FE01BA
:105570008491C82EC2942FE0C222F82FFF706F2EA4
:105580004C2D50E0FA013197EF30F10508F0B0C032
:10559000E85BFF4F0C948A3C4E018FEF881A980A03
:1055A000F701608166956170C8010E944D2AD12C77
:1055B000A401B601C8010E947C2AA62CB12C662049
:1055C00069F08C0C9D1CF70160816170C8010E941C
:1055D0004D2AA401B501C8010E947C2AFFEFCF1A11
:1055E000DF0ACA0CDB1C12C0F70160816170C801C0
:1055F0000E944D2AAE014F5F5F4FC62CD12CB601E1
:10560000C8010E947C2AFFEFCF1ADF0ACC0DDD1DF6
:10561000AECFF7016081669561706725C8010E9471
:105620004D2AC62CD12C662071F3AE014F5F5F4F1F
:10563000E6CFFE013196E491662D70E0762F662765
:105640006E0F711DC8010E945C2A0CC0FE013196CC
:10565000E491662D70E0762F66276E0F711DC801EC
:105660000E94512A229683CFFE013196C490319632
:10567000D4902396F70160816170C8010E944D2A81
:10568000F801838994890FC0FE013196C490319648
:10569000D4902396F70160816170C8010E944D2A61
:1056A000F8018589968902C0959587956A94E2F7F5
:1056B0006C2D68236D29C8010E94702A58CF962D41
:1056C00096959695913069F030F0933079F4837027
:1056D000F70180830BC0682F6170C8010E94452AC2
:1056E00005C0682F6170C8010E94492A21963FCFEA
:1056F000DF91CF911F910F91FF90EF90DF90CF90AE
:10570000BF90AF909F908F907F906F9008956C3076
:10571000710559F06731710589F4DC011796ED9137
:10572000FC91189767E170E00994DC01A45ABF4F1F
:1057300088E0FA0101900D928A95E1F781E090E00E
:10574000089581E090E00895EF92FF920F931F93E8
:10575000CF93DF9300D01F92CDB7DEB78C010E94AC
:105760008628892B09F457C0D8015C968D919C91AD
:105770005D978130910541F08230910559F0892B78
:10578000E9F46DE971E002C06CE771E0C8010E94C4
:10579000A12A27C0F801E388F4888FEE90E08E19E3
:1057A0009F09948B838B6BE571E0C8010E94A12A4D
:1057B000D8015496FC92EE92539713C0F801E588F5
:1057C000F6888FE391E08E199F09968B858B67E3AE
:1057D00071E0C8010E94A12AD8015696FC92EE926F
:1057E0005597F80187898983808D8A83818D8B8382
:1057F000428D538D0188F289E02D9E012F5F3F4F2E
:1058000063E170E0C801099561E0C8010E94492A7E
:1058100081E090E002C080E090E00F900F900F9048
:10582000DF91CF911F910F91FF90EF9008958F928C
:105830009F92AF92BF92CF92DF92EF92FF920F931F
:105840001F93CF93DF9300D01F92CDB7DEB78C01AB
:105850007C0182E3E80EF11CC12CD12CBE2CAF2CB4
:10586000F801EC0DFD1DD8015A962D913C915B97E6
:1058700041A566A1C7010E949027BFEFCB1ADB0AA2
:10588000EEE0EE0EF11CF3E0CF16D10449F7C801AB
:105890000E948929892B09F47FC0D8015C962D913B
:1058A0003C915D9721303105A9F022303105A9F0F6
:1058B000232B49F56DE971E0C8010E94A12AE12C72
:1058C000F12C6801B0E4CB0ED11C4801EEE48E0E41
:1058D000911C2FC06CE771E0EFCFD8015396ED908B
:1058E000FC9054972FEE30E02E193F0954963C93CC
:1058F0002E9353976BE571E0C8010E94A12AF8012D
:10590000F48AE38ADCCFD8015596ED90FC90569747
:105910002FE331E02E193F0956963C932E9355976D
:1059200067E371E0C8010E94A12AF801F68AE58ABE
:10593000C6CFF801828D938DE816F90634F5D801AB
:10594000D2968C918983F60180818A83D4018C91CF
:105950008B83D8015196ED91FC9152979E012F5F58
:105960003F4F41E050E063E170E0C80109958B2DA5
:105970009A2D0E94C927C6010E94C927C4010E940E
:10598000C927BFEFEB1AFB0AD4CF61E0C8010E9420
:10599000492A81E090E002C080E090E00F900F90F3
:1059A0000F90DF91CF911F910F91FF90EF90DF90BB
:1059B000CF90BF90AF909F908F9008950F931F93BB
:1059C000CF93DF9300D01F92CDB7DEB78C016F303D
:1059D0007105E9F064F46A30710591F06B3071057E
:1059E00009F043C060E371E00E94A12A42C0643123
:1059F0007105D1F065317105C1F50E94A42B39C044
:105A000042E450E064E670E00E94CC2934C080EFAC
:105A100090E0DA0111969C938E9380E491E01396C6
:105A20009C938E93129725C00E946F28892B09F1B1
:105A30006BEB71E0C8010E94A12AF8018789898374
:105A4000808D8A83818D8B830188F289E02D9E0170
:105A50002F5F3F4F41E050E063E170E0C8010995DE
:105A600061E0C8010E94492A04C0C8010E94872B36
:105A700002C081E090E00F900F900F90DF91CF91E6
:105A80001F910F9108956731710511F40E94172C31
:105A900081E090E00895CF93DF93EC01888180FF4F
:105AA0000BC0ED81FE8140E050E06BE070E0CE0184
:105AB000099588818E7F8883DF91CF910895CF9358
:105AC000DF93EC010E944B2DED81FE8140E050E020
:105AD0006AE070E0CE010995009719F028812160F5
